{
  "_format": "hh-sol-artifact-1",
  "contractName": "OrgFeedback",
  "sourceName": "contracts/OrgFeedback.sol",
  "abi": [
    {
      "anonymous": false,
      "inputs": [
        {
          "indexed": true,
          "internalType": "address",
          "name": "orgId",
          "type": "address"
        },
        {
          "indexed": true,
          "internalType": "address",
          "name": "sender",
          "type": "address"
        },
        {
          "indexed": true,
          "internalType": "address",
          "name": "receiver",
          "type": "address"
        },
        {
          "indexed": false,
          "internalType": "uint256",
          "name": "feedbackIndex",
          "type": "uint256"
        }
      ],
      "name": "FeedbackSent",
      "type": "event"
    },
    {
      "anonymous": false,
      "inputs": [
        {
          "indexed": true,
          "internalType": "address",
          "name": "orgId",
          "type": "address"
        },
        {
          "indexed": false,
          "internalType": "string",
          "name": "logoIpfsCid",
          "type": "string"
        }
      ],
      "name": "LogoUpdated",
      "type": "event"
    },
    {
      "anonymous": false,
      "inputs": [
        {
          "indexed": true,
          "internalType": "address",
          "name": "orgId",
          "type": "address"
        },
        {
          "indexed": true,
          "internalType": "address",
          "name": "member",
          "type": "address"
        }
      ],
      "name": "MemberAdded",
      "type": "event"
    },
    {
      "anonymous": false,
      "inputs": [
        {
          "indexed": true,
          "internalType": "address",
          "name": "orgId",
          "type": "address"
        },
        {
          "indexed": true,
          "internalType": "address",
          "name": "member",
          "type": "address"
        }
      ],
      "name": "MemberRemoved",
      "type": "event"
    },
    {
      "anonymous": false,
      "inputs": [
        {
          "indexed": true,
          "internalType": "address",
          "name": "orgId",
          "type": "address"
        },
        {
          "indexed": true,
          "internalType": "address",
          "name": "moderator",
          "type": "address"
        }
      ],
      "name": "ModeratorAdded",
      "type": "event"
    },
    {
      "anonymous": false,
      "inputs": [
        {
          "indexed": true,
          "internalType": "address",
          "name": "orgId",
          "type": "address"
        },
        {
          "indexed": true,
          "internalType": "address",
          "name": "moderator",
          "type": "address"
        }
      ],
      "name": "ModeratorRemoved",
      "type": "event"
    },
    {
      "anonymous": false,
      "inputs": [
        {
          "indexed": true,
          "internalType": "address",
          "name": "orgId",
          "type": "address"
        },
        {
          "indexed": false,
          "internalType": "address",
          "name": "owner",
          "type": "address"
        },
        {
          "indexed": false,
          "internalType": "string",
          "name": "name",
          "type": "string"
        }
      ],
      "name": "OrganizationCreated",
      "type": "event"
    },
    {
      "inputs": [
        {
          "internalType": "address",
          "name": "orgId",
          "type": "address"
        },
        {
          "internalType": "address",
          "name": "member",
          "type": "address"
        }
      ],
      "name": "addMember",
      "outputs": [],
      "stateMutability": "nonpayable",
      "type": "function"
    },
    {
      "inputs": [
        {
          "internalType": "address",
          "name": "orgId",
          "type": "address"
        },
        {
          "internalType": "address",
          "name": "moderator",
          "type": "address"
        }
      ],
      "name": "addModerator",
      "outputs": [],
      "stateMutability": "nonpayable",
      "type": "function"
    },
    {
      "inputs": [
        {
          "internalType": "string",
          "name": "name",
          "type": "string"
        },
        {
          "internalType": "string",
          "name": "description",
          "type": "string"
        }
      ],
      "name": "createOrganization",
      "outputs": [],
      "stateMutability": "nonpayable",
      "type": "function"
    },
    {
      "inputs": [],
      "name": "getAccessibleFeedbacks",
      "outputs": [
        {
          "internalType": "address[]",
          "name": "orgIds",
          "type": "address[]"
        },
        {
          "internalType": "address[]",
          "name": "senders",
          "type": "address[]"
        },
        {
          "internalType": "address[]",
          "name": "receivers",
          "type": "address[]"
        },
        {
          "internalType": "string[]",
          "name": "messages",
          "type": "string[]"
        },
        {
          "internalType": "uint256[]",
          "name": "timestamps",
          "type": "uint256[]"
        }
      ],
      "stateMutability": "view",
      "type": "function"
    },
    {
      "inputs": [],
      "name": "getFeedbackCount",
      "outputs": [
        {
          "internalType": "uint256",
          "name": "",
          "type": "uint256"
        }
      ],
      "stateMutability": "view",
      "type": "function"
    },
    {
      "inputs": [
        {
          "internalType": "address",
          "name": "orgId",
          "type": "address"
        }
      ],
      "name": "getOrgMembers",
      "outputs": [
        {
          "internalType": "address[]",
          "name": "",
          "type": "address[]"
        }
      ],
      "stateMutability": "view",
      "type": "function"
    },
    {
      "inputs": [
        {
          "internalType": "address",
          "name": "orgId",
          "type": "address"
        }
      ],
      "name": "getOrgMetadata",
      "outputs": [
        {
          "internalType": "string",
          "name": "name",
          "type": "string"
        },
        {
          "internalType": "string",
          "name": "description",
          "type": "string"
        },
        {
          "internalType": "string",
          "name": "logoIpfsCid",
          "type": "string"
        },
        {
          "internalType": "address",
          "name": "owner",
          "type": "address"
        }
      ],
      "stateMutability": "view",
      "type": "function"
    },
    {
      "inputs": [
        {
          "internalType": "address",
          "name": "user",
          "type": "address"
        }
      ],
      "name": "getOrganizationsByUser",
      "outputs": [
        {
          "internalType": "address[]",
          "name": "",
          "type": "address[]"
        }
      ],
      "stateMutability": "view",
      "type": "function"
    },
    {
      "inputs": [
        {
          "internalType": "address",
          "name": "orgId",
          "type": "address"
        },
        {
          "internalType": "address",
          "name": "user",
          "type": "address"
        }
      ],
      "name": "isMember",
      "outputs": [
        {
          "internalType": "bool",
          "name": "",
          "type": "bool"
        }
      ],
      "stateMutability": "view",
      "type": "function"
    },
    {
      "inputs": [
        {
          "internalType": "address",
          "name": "orgId",
          "type": "address"
        },
        {
          "internalType": "address",
          "name": "user",
          "type": "address"
        }
      ],
      "name": "isModerator",
      "outputs": [
        {
          "internalType": "bool",
          "name": "",
          "type": "bool"
        }
      ],
      "stateMutability": "view",
      "type": "function"
    },
    {
      "inputs": [
        {
          "internalType": "address",
          "name": "orgId",
          "type": "address"
        },
        {
          "internalType": "address",
          "name": "member",
          "type": "address"
        }
      ],
      "name": "removeMember",
      "outputs": [],
      "stateMutability": "nonpayable",
      "type": "function"
    },
    {
      "inputs": [
        {
          "internalType": "address",
          "name": "orgId",
          "type": "address"
        },
        {
          "internalType": "address",
          "name": "moderator",
          "type": "address"
        }
      ],
      "name": "removeModerator",
      "outputs": [],
      "stateMutability": "nonpayable",
      "type": "function"
    },
    {
      "inputs": [
        {
          "internalType": "address",
          "name": "orgId",
          "type": "address"
        },
        {
          "internalType": "address",
          "name": "receiver",
          "type": "address"
        },
        {
          "internalType": "string",
          "name": "forSender",
          "type": "string"
        },
        {
          "internalType": "string",
          "name": "forReceiver",
          "type": "string"
        },
        {
          "internalType": "string",
          "name": "forAdmin",
          "type": "string"
        },
        {
          "internalType": "bool",
          "name": "revealToReceiver",
          "type": "bool"
        },
        {
          "internalType": "bool",
          "name": "revealToAdmin",
          "type": "bool"
        }
      ],
      "name": "sendFeedback",
      "outputs": [],
      "stateMutability": "nonpayable",
      "type": "function"
    },
    {
      "inputs": [],
      "name": "totalOrganizations",
      "outputs": [
        {
          "internalType": "uint256",
          "name": "",
          "type": "uint256"
        }
      ],
      "stateMutability": "view",
      "type": "function"
    },
    {
      "inputs": [
        {
          "internalType": "address",
          "name": "orgId",
          "type": "address"
        },
        {
          "internalType": "string",
          "name": "logoIpfsCid",
          "type": "string"
        }
      ],
      "name": "updateLogo",
      "outputs": [],
      "stateMutability": "nonpayable",
      "type": "function"
    }
  ],
  "bytecode": "0x608060405234801561001057600080fd5b506146aa806100206000396000f3fe608060405234801561001057600080fd5b50600436106100f55760003560e01c806396f58f8a11610097578063c341363511610066578063c341363514610282578063d4d95aa01461029e578063e29b0904146102d1578063ef878d3f146102ed576100f5565b806396f58f8a146101ea5780639d58b15d1461021a578063a411ef2014610236578063b8a0b6be14610252576100f5565b806338c5c86b116100d357806338c5c86b1461016257806339ac7a08146101805780634cf5d552146101b05780635ebaaa89146101ce576100f5565b80630faab9f4146100fa5780631f3175201461012a57806333497b6314610146575b600080fd5b610114600480360381019061010f9190613410565b61030f565b60405161012191906134fb565b60405180910390f35b610144600480360381019061013f919061351d565b6105d0565b005b610160600480360381019061015b91906135c2565b6109be565b005b61016a610bc3565b604051610177919061363b565b60405180910390f35b61019a6004803603810190610195919061351d565b610bd0565b6040516101a79190613671565b60405180910390f35b6101b8610c66565b6040516101c5919061363b565b60405180910390f35b6101e860048036038101906101e3919061351d565b610c6c565b005b61020460048036038101906101ff919061351d565b611057565b6040516102119190613671565b60405180910390f35b610234600480360381019061022f919061351d565b6110ed565b005b610250600480360381019061024b919061368c565b6115e2565b005b61026c60048036038101906102679190613410565b611986565b60405161027991906134fb565b60405180910390f35b61029c60048036038101906102979190613739565b611a53565b005b6102b860048036038101906102b39190613410565b611eed565b6040516102c894939291906138db565b60405180910390f35b6102eb60048036038101906102e6919061351d565b6121a9565b005b6102f5612a4d565b604051610306959493929190613aff565b60405180910390f35b6060816000808273ffffffffffffffffffffffffffffffffffffffff1673ffffffffffffffffffffffffffffffffffffffff16815260200190815260200160002060070160009054906101000a900460ff166103a0576040517f08c379a000000000000000000000000000000000000000000000000000000000815260040161039790613bc1565b60405180910390fd5b6000808273ffffffffffffffffffffffffffffffffffffffff1673ffffffffffffffffffffffffffffffffffffffff16815260200190815260200160002060030160009054906101000a900473ffffffffffffffffffffffffffffffffffffffff1673ffffffffffffffffffffffffffffffffffffffff163373ffffffffffffffffffffffffffffffffffffffff1614806104c357506000808273ffffffffffffffffffffffffffffffffffffffff1673ffffffffffffffffffffffffffffffffffffffff16815260200190815260200160002060050160003373ffffffffffffffffffffffffffffffffffffffff1673ffffffffffffffffffffffffffffffffffffffff16815260200190815260200160002060009054906101000a900460ff165b610502576040517f08c379a00000000000000000000000000000000000000000000000000000000081526004016104f990613c2d565b60405180910390fd5b6000808473ffffffffffffffffffffffffffffffffffffffff1673ffffffffffffffffffffffffffffffffffffffff1681526020019081526020016000206006018054806020026020016040519081016040528092919081815260200182805480156105c357602002820191906000526020600020905b8160009054906101000a900473ffffffffffffffffffffffffffffffffffffffff1673ffffffffffffffffffffffffffffffffffffffff1681526020019060010190808311610579575b5050505050915050919050565b816000808273ffffffffffffffffffffffffffffffffffffffff1673ffffffffffffffffffffffffffffffffffffffff16815260200190815260200160002060070160009054906101000a900460ff1661065f576040517f08c379a000000000000000000000000000000000000000000000000000000000815260040161065690613bc1565b60405180910390fd5b6000808273ffffffffffffffffffffffffffffffffffffffff1673ffffffffffffffffffffffffffffffffffffffff16815260200190815260200160002060030160009054906101000a900473ffffffffffffffffffffffffffffffffffffffff1673ffffffffffffffffffffffffffffffffffffffff163373ffffffffffffffffffffffffffffffffffffffff161461072e576040517f08c379a000000000000000000000000000000000000000000000000000000000815260040161072590613c99565b60405180910390fd5b6000808473ffffffffffffffffffffffffffffffffffffffff1673ffffffffffffffffffffffffffffffffffffffff16815260200190815260200160002060050160008373ffffffffffffffffffffffffffffffffffffffff1673ffffffffffffffffffffffffffffffffffffffff16815260200190815260200160002060009054906101000a900460ff166107f9576040517f08c379a00000000000000000000000000000000000000000000000000000000081526004016107f090613d05565b60405180910390fd5b6000808473ffffffffffffffffffffffffffffffffffffffff1673ffffffffffffffffffffffffffffffffffffffff16815260200190815260200160002060030160009054906101000a900473ffffffffffffffffffffffffffffffffffffffff1673ffffffffffffffffffffffffffffffffffffffff168273ffffffffffffffffffffffffffffffffffffffff16036108c8576040517f08c379a00000000000000000000000000000000000000000000000000000000081526004016108bf90613d71565b60405180910390fd5b60008060008573ffffffffffffffffffffffffffffffffffffffff1673ffffffffffffffffffffffffffffffffffffffff16815260200190815260200160002060050160008473ffffffffffffffffffffffffffffffffffffffff1673ffffffffffffffffffffffffffffffffffffffff16815260200190815260200160002060006101000a81548160ff0219169083151502179055508173ffffffffffffffffffffffffffffffffffffffff168373ffffffffffffffffffffffffffffffffffffffff167fe8be8610d5b9c3588f5325a70b84a829654607d2ffb60d317c74de09ad8955da60405160405180910390a3505050565b826000808273ffffffffffffffffffffffffffffffffffffffff1673ffffffffffffffffffffffffffffffffffffffff16815260200190815260200160002060070160009054906101000a900460ff16610a4d576040517f08c379a0000000000000000000000000000000000000000000000000000000008152600401610a4490613bc1565b60405180910390fd5b6000808273ffffffffffffffffffffffffffffffffffffffff1673ffffffffffffffffffffffffffffffffffffffff16815260200190815260200160002060030160009054906101000a900473ffffffffffffffffffffffffffffffffffffffff1673ffffffffffffffffffffffffffffffffffffffff163373ffffffffffffffffffffffffffffffffffffffff1614610b1c576040517f08c379a0000000000000000000000000000000000000000000000000000000008152600401610b1390613c99565b60405180910390fd5b82826000808773ffffffffffffffffffffffffffffffffffffffff1673ffffffffffffffffffffffffffffffffffffffff1681526020019081526020016000206002019182610b6c929190613fd7565b508373ffffffffffffffffffffffffffffffffffffffff167f8ff1f86b995433493d3085a56c19de185e427577a205e6f1626fc92c4c33cbbf8484604051610bb59291906140e3565b60405180910390a250505050565b6000600280549050905090565b60008060008473ffffffffffffffffffffffffffffffffffffffff1673ffffffffffffffffffffffffffffffffffffffff16815260200190815260200160002060040160008373ffffffffffffffffffffffffffffffffffffffff1673ffffffffffffffffffffffffffffffffffffffff16815260200190815260200160002060009054906101000a900460ff16905092915050565b60035481565b816000808273ffffffffffffffffffffffffffffffffffffffff1673ffffffffffffffffffffffffffffffffffffffff16815260200190815260200160002060070160009054906101000a900460ff16610cfb576040517f08c379a0000000000000000000000000000000000000000000000000000000008152600401610cf290613bc1565b60405180910390fd5b6000808273ffffffffffffffffffffffffffffffffffffffff1673ffffffffffffffffffffffffffffffffffffffff16815260200190815260200160002060030160009054906101000a900473ffffffffffffffffffffffffffffffffffffffff1673ffffffffffffffffffffffffffffffffffffffff163373ffffffffffffffffffffffffffffffffffffffff1614610dca576040517f08c379a0000000000000000000000000000000000000000000000000000000008152600401610dc190613c99565b60405180910390fd5b6000808473ffffffffffffffffffffffffffffffffffffffff1673ffffffffffffffffffffffffffffffffffffffff16815260200190815260200160002060040160008373ffffffffffffffffffffffffffffffffffffffff1673ffffffffffffffffffffffffffffffffffffffff16815260200190815260200160002060009054906101000a900460ff16610e95576040517f08c379a0000000000000000000000000000000000000000000000000000000008152600401610e8c90614153565b60405180910390fd5b6000808473ffffffffffffffffffffffffffffffffffffffff1673ffffffffffffffffffffffffffffffffffffffff16815260200190815260200160002060050160008373ffffffffffffffffffffffffffffffffffffffff1673ffffffffffffffffffffffffffffffffffffffff16815260200190815260200160002060009054906101000a900460ff1615610f61576040517f08c379a0000000000000000000000000000000000000000000000000000000008152600401610f58906141bf565b60405180910390fd5b60016000808573ffffffffffffffffffffffffffffffffffffffff1673ffffffffffffffffffffffffffffffffffffffff16815260200190815260200160002060050160008473ffffffffffffffffffffffffffffffffffffffff1673ffffffffffffffffffffffffffffffffffffffff16815260200190815260200160002060006101000a81548160ff0219169083151502179055508173ffffffffffffffffffffffffffffffffffffffff168373ffffffffffffffffffffffffffffffffffffffff167fb4005643ce6c085fe72c1083ad63d40564de090eea049fd974d6ad39af3f5dbb60405160405180910390a3505050565b60008060008473ffffffffffffffffffffffffffffffffffffffff1673ffffffffffffffffffffffffffffffffffffffff16815260200190815260200160002060050160008373ffffffffffffffffffffffffffffffffffffffff1673ffffffffffffffffffffffffffffffffffffffff16815260200190815260200160002060009054906101000a900460ff16905092915050565b816000808273ffffffffffffffffffffffffffffffffffffffff1673ffffffffffffffffffffffffffffffffffffffff16815260200190815260200160002060070160009054906101000a900460ff1661117c576040517f08c379a000000000000000000000000000000000000000000000000000000000815260040161117390613bc1565b60405180910390fd5b6000808273ffffffffffffffffffffffffffffffffffffffff1673ffffffffffffffffffffffffffffffffffffffff16815260200190815260200160002060030160009054906101000a900473ffffffffffffffffffffffffffffffffffffffff1673ffffffffffffffffffffffffffffffffffffffff163373ffffffffffffffffffffffffffffffffffffffff16148061129f57506000808273ffffffffffffffffffffffffffffffffffffffff1673ffffffffffffffffffffffffffffffffffffffff16815260200190815260200160002060050160003373ffffffffffffffffffffffffffffffffffffffff1673ffffffffffffffffffffffffffffffffffffffff16815260200190815260200160002060009054906101000a900460ff165b6112de576040517f08c379a00000000000000000000000000000000000000000000000000000000081526004016112d590613c2d565b60405180910390fd5b6000808473ffffffffffffffffffffffffffffffffffffffff1673ffffffffffffffffffffffffffffffffffffffff16815260200190815260200160002060040160008373ffffffffffffffffffffffffffffffffffffffff1673ffffffffffffffffffffffffffffffffffffffff16815260200190815260200160002060009054906101000a900460ff16156113aa576040517f08c379a00000000000000000000000000000000000000000000000000000000081526004016113a19061422b565b60405180910390fd5b60016000808573ffffffffffffffffffffffffffffffffffffffff1673ffffffffffffffffffffffffffffffffffffffff16815260200190815260200160002060040160008473ffffffffffffffffffffffffffffffffffffffff1673ffffffffffffffffffffffffffffffffffffffff16815260200190815260200160002060006101000a81548160ff0219169083151502179055506000808473ffffffffffffffffffffffffffffffffffffffff1673ffffffffffffffffffffffffffffffffffffffff168152602001908152602001600020600601829080600181540180825580915050600190039060005260206000200160009091909190916101000a81548173ffffffffffffffffffffffffffffffffffffffff021916908373ffffffffffffffffffffffffffffffffffffffff160217905550600160008373ffffffffffffffffffffffffffffffffffffffff1673ffffffffffffffffffffffffffffffffffffffff168152602001908152602001600020839080600181540180825580915050600190039060005260206000200160009091909190916101000a81548173ffffffffffffffffffffffffffffffffffffffff021916908373ffffffffffffffffffffffffffffffffffffffff1602179055508173ffffffffffffffffffffffffffffffffffffffff168373ffffffffffffffffffffffffffffffffffffffff167f6a2af11b2d73f347f9d5840aea46899e17609730b5cd91bd9c312098038acba660405160405180910390a3505050565b6000803373ffffffffffffffffffffffffffffffffffffffff1673ffffffffffffffffffffffffffffffffffffffff16815260200190815260200160002060070160009054906101000a900460ff1615611671576040517f08c379a000000000000000000000000000000000000000000000000000000000815260040161166890614297565b60405180910390fd5b60008060003373ffffffffffffffffffffffffffffffffffffffff1673ffffffffffffffffffffffffffffffffffffffff168152602001908152602001600020905084848260000191826116c6929190613fd7565b5082828260010191826116da929190613fd7565b50604051806020016040528060008152508160020190816116fb91906142b7565b50338160030160006101000a81548173ffffffffffffffffffffffffffffffffffffffff021916908373ffffffffffffffffffffffffffffffffffffffff16021790555060018160070160006101000a81548160ff02191690831515021790555060018160040160003373ffffffffffffffffffffffffffffffffffffffff1673ffffffffffffffffffffffffffffffffffffffff16815260200190815260200160002060006101000a81548160ff02191690831515021790555060018160050160003373ffffffffffffffffffffffffffffffffffffffff1673ffffffffffffffffffffffffffffffffffffffff16815260200190815260200160002060006101000a81548160ff02191690831515021790555080600601339080600181540180825580915050600190039060005260206000200160009091909190916101000a81548173ffffffffffffffffffffffffffffffffffffffff021916908373ffffffffffffffffffffffffffffffffffffffff160217905550600160003373ffffffffffffffffffffffffffffffffffffffff1673ffffffffffffffffffffffffffffffffffffffff168152602001908152602001600020339080600181540180825580915050600190039060005260206000200160009091909190916101000a81548173ffffffffffffffffffffffffffffffffffffffff021916908373ffffffffffffffffffffffffffffffffffffffff16021790555060036000815480929190611928906143b8565b91905055503373ffffffffffffffffffffffffffffffffffffffff167f033570404994c2586c43c3a7137b2a8ff27a656ae42e1898cd08629acdb5a2ca33878760405161197793929190614400565b60405180910390a25050505050565b6060600160008373ffffffffffffffffffffffffffffffffffffffff1673ffffffffffffffffffffffffffffffffffffffff168152602001908152602001600020805480602002602001604051908101604052809291908181526020018280548015611a4757602002820191906000526020600020905b8160009054906101000a900473ffffffffffffffffffffffffffffffffffffffff1673ffffffffffffffffffffffffffffffffffffffff16815260200190600101908083116119fd575b50505050509050919050565b6000808b73ffffffffffffffffffffffffffffffffffffffff1673ffffffffffffffffffffffffffffffffffffffff16815260200190815260200160002060070160009054906101000a900460ff16611ae1576040517f08c379a0000000000000000000000000000000000000000000000000000000008152600401611ad890613bc1565b60405180910390fd5b611aeb8a33610bd0565b611b2a576040517f08c379a0000000000000000000000000000000000000000000000000000000008152600401611b219061447e565b60405180910390fd5b611b348a8a610bd0565b611b73576040517f08c379a0000000000000000000000000000000000000000000000000000000008152600401611b6a906144ea565b60405180910390fd5b60026040518061012001604052808c73ffffffffffffffffffffffffffffffffffffffff1681526020013373ffffffffffffffffffffffffffffffffffffffff1681526020018b73ffffffffffffffffffffffffffffffffffffffff1681526020018a8a8080601f016020809104026020016040519081016040528093929190818152602001838380828437600081840152601f19601f82011690508083019250505050505050815260200188888080601f016020809104026020016040519081016040528093929190818152602001838380828437600081840152601f19601f82011690508083019250505050505050815260200186868080601f016020809104026020016040519081016040528093929190818152602001838380828437600081840152601f19601f8201169050808301925050505050505081526020018415158152602001831515815260200142815250908060018154018082558091505060019003906000526020600020906008020160009091909190915060008201518160000160006101000a81548173ffffffffffffffffffffffffffffffffffffffff021916908373ffffffffffffffffffffffffffffffffffffffff16021790555060208201518160010160006101000a81548173ffffffffffffffffffffffffffffffffffffffff021916908373ffffffffffffffffffffffffffffffffffffffff16021790555060408201518160020160006101000a81548173ffffffffffffffffffffffffffffffffffffffff021916908373ffffffffffffffffffffffffffffffffffffffff1602179055506060820151816003019081611dda91906142b7565b506080820151816004019081611df091906142b7565b5060a0820151816005019081611e0691906142b7565b5060c08201518160060160006101000a81548160ff02191690831515021790555060e08201518160060160016101000a81548160ff021916908315150217905550610100820151816007015550508873ffffffffffffffffffffffffffffffffffffffff163373ffffffffffffffffffffffffffffffffffffffff168b73ffffffffffffffffffffffffffffffffffffffff167f57982ebe231f5671c323332269d7e702095a5110217a8508cb09c9a4f2f281f66001600280549050611ecc919061450a565b604051611ed9919061363b565b60405180910390a450505050505050505050565b606080606060008060008673ffffffffffffffffffffffffffffffffffffffff1673ffffffffffffffffffffffffffffffffffffffff16815260200190815260200160002060070160009054906101000a900460ff16611f82576040517f08c379a0000000000000000000000000000000000000000000000000000000008152600401611f799061458a565b60405180910390fd5b60008060008773ffffffffffffffffffffffffffffffffffffffff1673ffffffffffffffffffffffffffffffffffffffff16815260200190815260200160002090508060000181600101826002018360030160009054906101000a900473ffffffffffffffffffffffffffffffffffffffff1683805461200190613dfa565b80601f016020809104026020016040519081016040528092919081815260200182805461202d90613dfa565b801561207a5780601f1061204f5761010080835404028352916020019161207a565b820191906000526020600020905b81548152906001019060200180831161205d57829003601f168201915b5050505050935082805461208d90613dfa565b80601f01602080910402602001604051908101604052809291908181526020018280546120b990613dfa565b80156121065780601f106120db57610100808354040283529160200191612106565b820191906000526020600020905b8154815290600101906020018083116120e957829003601f168201915b5050505050925081805461211990613dfa565b80601f016020809104026020016040519081016040528092919081815260200182805461214590613dfa565b80156121925780601f1061216757610100808354040283529160200191612192565b820191906000526020600020905b81548152906001019060200180831161217557829003601f168201915b505050505091509450945094509450509193509193565b816000808273ffffffffffffffffffffffffffffffffffffffff1673ffffffffffffffffffffffffffffffffffffffff16815260200190815260200160002060070160009054906101000a900460ff16612238576040517f08c379a000000000000000000000000000000000000000000000000000000000815260040161222f90613bc1565b60405180910390fd5b6000808273ffffffffffffffffffffffffffffffffffffffff1673ffffffffffffffffffffffffffffffffffffffff16815260200190815260200160002060030160009054906101000a900473ffffffffffffffffffffffffffffffffffffffff1673ffffffffffffffffffffffffffffffffffffffff163373ffffffffffffffffffffffffffffffffffffffff16148061235b57506000808273ffffffffffffffffffffffffffffffffffffffff1673ffffffffffffffffffffffffffffffffffffffff16815260200190815260200160002060050160003373ffffffffffffffffffffffffffffffffffffffff1673ffffffffffffffffffffffffffffffffffffffff16815260200190815260200160002060009054906101000a900460ff165b61239a576040517f08c379a000000000000000000000000000000000000000000000000000000000815260040161239190613c2d565b60405180910390fd5b6000808473ffffffffffffffffffffffffffffffffffffffff1673ffffffffffffffffffffffffffffffffffffffff16815260200190815260200160002060040160008373ffffffffffffffffffffffffffffffffffffffff1673ffffffffffffffffffffffffffffffffffffffff16815260200190815260200160002060009054906101000a900460ff16612465576040517f08c379a000000000000000000000000000000000000000000000000000000000815260040161245c906145f6565b60405180910390fd5b6000808473ffffffffffffffffffffffffffffffffffffffff1673ffffffffffffffffffffffffffffffffffffffff16815260200190815260200160002060030160009054906101000a900473ffffffffffffffffffffffffffffffffffffffff1673ffffffffffffffffffffffffffffffffffffffff168273ffffffffffffffffffffffffffffffffffffffff1603612534576040517f08c379a000000000000000000000000000000000000000000000000000000000815260040161252b90613d71565b60405180910390fd5b60008060008573ffffffffffffffffffffffffffffffffffffffff1673ffffffffffffffffffffffffffffffffffffffff16815260200190815260200160002060040160008473ffffffffffffffffffffffffffffffffffffffff1673ffffffffffffffffffffffffffffffffffffffff16815260200190815260200160002060006101000a81548160ff02191690831515021790555060008060008573ffffffffffffffffffffffffffffffffffffffff1673ffffffffffffffffffffffffffffffffffffffff16815260200190815260200160002060050160008473ffffffffffffffffffffffffffffffffffffffff1673ffffffffffffffffffffffffffffffffffffffff16815260200190815260200160002060006101000a81548160ff02191690831515021790555060008060008573ffffffffffffffffffffffffffffffffffffffff1673ffffffffffffffffffffffffffffffffffffffff168152602001908152602001600020600601905060005b8180549050811015612827578373ffffffffffffffffffffffffffffffffffffffff168282815481106126e0576126df614616565b5b9060005260206000200160009054906101000a900473ffffffffffffffffffffffffffffffffffffffff1673ffffffffffffffffffffffffffffffffffffffff160361281a578160018380549050612738919061450a565b8154811061274957612748614616565b5b9060005260206000200160009054906101000a900473ffffffffffffffffffffffffffffffffffffffff1682828154811061278757612786614616565b5b9060005260206000200160006101000a81548173ffffffffffffffffffffffffffffffffffffffff021916908373ffffffffffffffffffffffffffffffffffffffff160217905550818054806127e0576127df614645565b5b6001900381819060005260206000200160006101000a81549073ffffffffffffffffffffffffffffffffffffffff02191690559055612827565b80806001019150506126aa565b506000600160008573ffffffffffffffffffffffffffffffffffffffff1673ffffffffffffffffffffffffffffffffffffffff168152602001908152602001600020905060005b81805490508110156129eb578573ffffffffffffffffffffffffffffffffffffffff168282815481106128a4576128a3614616565b5b9060005260206000200160009054906101000a900473ffffffffffffffffffffffffffffffffffffffff1673ffffffffffffffffffffffffffffffffffffffff16036129de5781600183805490506128fc919061450a565b8154811061290d5761290c614616565b5b9060005260206000200160009054906101000a900473ffffffffffffffffffffffffffffffffffffffff1682828154811061294b5761294a614616565b5b9060005260206000200160006101000a81548173ffffffffffffffffffffffffffffffffffffffff021916908373ffffffffffffffffffffffffffffffffffffffff160217905550818054806129a4576129a3614645565b5b6001900381819060005260206000200160006101000a81549073ffffffffffffffffffffffffffffffffffffffff021916905590556129eb565b808060010191505061286e565b508373ffffffffffffffffffffffffffffffffffffffff168573ffffffffffffffffffffffffffffffffffffffff167faa91016c21c52c58ac64f23f71bbe75becc9ada603e18ee671d09ff15492d1c160405160405180910390a35050505050565b60608060608060606000805b600280549050811015612ccd57600060028281548110612a7c57612a7b614616565b5b906000526020600020906008020190503373ffffffffffffffffffffffffffffffffffffffff168160010160009054906101000a900473ffffffffffffffffffffffffffffffffffffffff1673ffffffffffffffffffffffffffffffffffffffff161480612b3957503373ffffffffffffffffffffffffffffffffffffffff168160020160009054906101000a900473ffffffffffffffffffffffffffffffffffffffff1673ffffffffffffffffffffffffffffffffffffffff16145b80612bf457506000808260000160009054906101000a900473ffffffffffffffffffffffffffffffffffffffff1673ffffffffffffffffffffffffffffffffffffffff1673ffffffffffffffffffffffffffffffffffffffff16815260200190815260200160002060030160009054906101000a900473ffffffffffffffffffffffffffffffffffffffff1673ffffffffffffffffffffffffffffffffffffffff163373ffffffffffffffffffffffffffffffffffffffff16145b80612cab57506000808260000160009054906101000a900473ffffffffffffffffffffffffffffffffffffffff1673ffffffffffffffffffffffffffffffffffffffff1673ffffffffffffffffffffffffffffffffffffffff16815260200190815260200160002060050160003373ffffffffffffffffffffffffffffffffffffffff1673ffffffffffffffffffffffffffffffffffffffff16815260200190815260200160002060009054906101000a900460ff165b15612cbf578280612cbb906143b8565b9350505b508080600101915050612a59565b508067ffffffffffffffff811115612ce857612ce7613d9c565b5b604051908082528060200260200182016040528015612d165781602001602082028036833780820191505090505b5095508067ffffffffffffffff811115612d3357612d32613d9c565b5b604051908082528060200260200182016040528015612d615781602001602082028036833780820191505090505b5094508067ffffffffffffffff811115612d7e57612d7d613d9c565b5b604051908082528060200260200182016040528015612dac5781602001602082028036833780820191505090505b5093508067ffffffffffffffff811115612dc957612dc8613d9c565b5b604051908082528060200260200182016040528015612dfc57816020015b6060815260200190600190039081612de75790505b5092508067ffffffffffffffff811115612e1957612e18613d9c565b5b604051908082528060200260200182016040528015612e475781602001602082028036833780820191505090505b5091506000805b60028054905081101561339e57600060028281548110612e7157612e70614616565b5b9060005260206000209060080201905060003373ffffffffffffffffffffffffffffffffffffffff168260010160009054906101000a900473ffffffffffffffffffffffffffffffffffffffff1673ffffffffffffffffffffffffffffffffffffffff1614905060003373ffffffffffffffffffffffffffffffffffffffff168360020160009054906101000a900473ffffffffffffffffffffffffffffffffffffffff1673ffffffffffffffffffffffffffffffffffffffff1614905060008060008560000160009054906101000a900473ffffffffffffffffffffffffffffffffffffffff1673ffffffffffffffffffffffffffffffffffffffff1673ffffffffffffffffffffffffffffffffffffffff16815260200190815260200160002060030160009054906101000a900473ffffffffffffffffffffffffffffffffffffffff1673ffffffffffffffffffffffffffffffffffffffff163373ffffffffffffffffffffffffffffffffffffffff1614905060008060008660000160009054906101000a900473ffffffffffffffffffffffffffffffffffffffff1673ffffffffffffffffffffffffffffffffffffffff1673ffffffffffffffffffffffffffffffffffffffff16815260200190815260200160002060050160003373ffffffffffffffffffffffffffffffffffffffff1673ffffffffffffffffffffffffffffffffffffffff16815260200190815260200160002060009054906101000a900460ff16905083806130a45750825b806130ac5750815b806130b45750805b1561338c578460000160009054906101000a900473ffffffffffffffffffffffffffffffffffffffff168d88815181106130f1576130f0614616565b5b602002602001019073ffffffffffffffffffffffffffffffffffffffff16908173ffffffffffffffffffffffffffffffffffffffff1681525050836131ab5782801561314b57508460060160009054906101000a900460ff165b806131755750818061315a5750805b801561317457508460060160019054906101000a900460ff165b5b6131805760006131a6565b8460010160009054906101000a900473ffffffffffffffffffffffffffffffffffffffff165b6131d1565b8460010160009054906101000a900473ffffffffffffffffffffffffffffffffffffffff165b8c88815181106131e4576131e3614616565b5b602002602001019073ffffffffffffffffffffffffffffffffffffffff16908173ffffffffffffffffffffffffffffffffffffffff16815250508460020160009054906101000a900473ffffffffffffffffffffffffffffffffffffffff168b888151811061325657613255614616565b5b602002602001019073ffffffffffffffffffffffffffffffffffffffff16908173ffffffffffffffffffffffffffffffffffffffff1681525050836132ad57826132a357846005016132a8565b846004015b6132b2565b846003015b80546132bd90613dfa565b80601f01602080910402602001604051908101604052809291908181526020018280546132e990613dfa565b80156133365780601f1061330b57610100808354040283529160200191613336565b820191906000526020600020905b81548152906001019060200180831161331957829003601f168201915b50505050508a888151811061334e5761334d614616565b5b6020026020010181905250846007015489888151811061337157613370614616565b5b6020026020010181815250508680613388906143b8565b9750505b50505050508080600101915050612e4e565b5050509091929394565b600080fd5b600080fd5b600073ffffffffffffffffffffffffffffffffffffffff82169050919050565b60006133dd826133b2565b9050919050565b6133ed816133d2565b81146133f857600080fd5b50565b60008135905061340a816133e4565b92915050565b600060208284031215613426576134256133a8565b5b6000613434848285016133fb565b91505092915050565b600081519050919050565b600082825260208201905092915050565b6000819050602082019050919050565b613472816133d2565b82525050565b60006134848383613469565b60208301905092915050565b6000602082019050919050565b60006134a88261343d565b6134b28185613448565b93506134bd83613459565b8060005b838110156134ee5781516134d58882613478565b97506134e083613490565b9250506001810190506134c1565b5085935050505092915050565b60006020820190508181036000830152613515818461349d565b905092915050565b60008060408385031215613534576135336133a8565b5b6000613542858286016133fb565b9250506020613553858286016133fb565b9150509250929050565b600080fd5b600080fd5b600080fd5b60008083601f8401126135825761358161355d565b5b8235905067ffffffffffffffff81111561359f5761359e613562565b5b6020830191508360018202830111156135bb576135ba613567565b5b9250929050565b6000806000604084860312156135db576135da6133a8565b5b60006135e9868287016133fb565b935050602084013567ffffffffffffffff81111561360a576136096133ad565b5b6136168682870161356c565b92509250509250925092565b6000819050919050565b61363581613622565b82525050565b6000602082019050613650600083018461362c565b92915050565b60008115159050919050565b61366b81613656565b82525050565b60006020820190506136866000830184613662565b92915050565b600080600080604085870312156136a6576136a56133a8565b5b600085013567ffffffffffffffff8111156136c4576136c36133ad565b5b6136d08782880161356c565b9450945050602085013567ffffffffffffffff8111156136f3576136f26133ad565b5b6136ff8782880161356c565b925092505092959194509250565b61371681613656565b811461372157600080fd5b50565b6000813590506137338161370d565b92915050565b60008060008060008060008060008060e08b8d03121561375c5761375b6133a8565b5b600061376a8d828e016133fb565b9a5050602061377b8d828e016133fb565b99505060408b013567ffffffffffffffff81111561379c5761379b6133ad565b5b6137a88d828e0161356c565b985098505060608b013567ffffffffffffffff8111156137cb576137ca6133ad565b5b6137d78d828e0161356c565b965096505060808b013567ffffffffffffffff8111156137fa576137f96133ad565b5b6138068d828e0161356c565b945094505060a06138198d828e01613724565b92505060c061382a8d828e01613724565b9150509295989b9194979a5092959850565b600081519050919050565b600082825260208201905092915050565b60005b8381101561387657808201518184015260208101905061385b565b60008484015250505050565b6000601f19601f8301169050919050565b600061389e8261383c565b6138a88185613847565b93506138b8818560208601613858565b6138c181613882565b840191505092915050565b6138d5816133d2565b82525050565b600060808201905081810360008301526138f58187613893565b905081810360208301526139098186613893565b9050818103604083015261391d8185613893565b905061392c60608301846138cc565b95945050505050565b600081519050919050565b600082825260208201905092915050565b6000819050602082019050919050565b600082825260208201905092915050565b600061397d8261383c565b6139878185613961565b9350613997818560208601613858565b6139a081613882565b840191505092915050565b60006139b78383613972565b905092915050565b6000602082019050919050565b60006139d782613935565b6139e18185613940565b9350836020820285016139f385613951565b8060005b85811015613a2f5784840389528151613a1085826139ab565b9450613a1b836139bf565b925060208a019950506001810190506139f7565b50829750879550505050505092915050565b600081519050919050565b600082825260208201905092915050565b6000819050602082019050919050565b613a7681613622565b82525050565b6000613a888383613a6d565b60208301905092915050565b6000602082019050919050565b6000613aac82613a41565b613ab68185613a4c565b9350613ac183613a5d565b8060005b83811015613af2578151613ad98882613a7c565b9750613ae483613a94565b925050600181019050613ac5565b5085935050505092915050565b600060a0820190508181036000830152613b19818861349d565b90508181036020830152613b2d818761349d565b90508181036040830152613b41818661349d565b90508181036060830152613b5581856139cc565b90508181036080830152613b698184613aa1565b90509695505050505050565b7f4f726720646f6573206e6f742065786973740000000000000000000000000000600082015250565b6000613bab601283613847565b9150613bb682613b75565b602082019050919050565b60006020820190508181036000830152613bda81613b9e565b9050919050565b7f4e6f74206f7267206f776e6572206f72206d6f64657261746f72000000000000600082015250565b6000613c17601a83613847565b9150613c2282613be1565b602082019050919050565b60006020820190508181036000830152613c4681613c0a565b9050919050565b7f4e6f74206f7267206f776e657200000000000000000000000000000000000000600082015250565b6000613c83600d83613847565b9150613c8e82613c4d565b602082019050919050565b60006020820190508181036000830152613cb281613c76565b9050919050565b7f4e6f742061206d6f64657261746f720000000000000000000000000000000000600082015250565b6000613cef600f83613847565b9150613cfa82613cb9565b602082019050919050565b60006020820190508181036000830152613d1e81613ce2565b9050919050565b7f43616e6e6f742072656d6f7665206f776e657200000000000000000000000000600082015250565b6000613d5b601383613847565b9150613d6682613d25565b602082019050919050565b60006020820190508181036000830152613d8a81613d4e565b9050919050565b600082905092915050565b7f4e487b7100000000000000000000000000000000000000000000000000000000600052604160045260246000fd5b7f4e487b7100000000000000000000000000000000000000000000000000000000600052602260045260246000fd5b60006002820490506001821680613e1257607f821691505b602082108103613e2557613e24613dcb565b5b50919050565b60008190508160005260206000209050919050565b60006020601f8301049050919050565b600082821b905092915050565b600060088302613e8d7fffffffffffffffffffffffffffffffffffffffffffffffffffffffffffffffff82613e50565b613e978683613e50565b95508019841693508086168417925050509392505050565b6000819050919050565b6000613ed4613ecf613eca84613622565b613eaf565b613622565b9050919050565b6000819050919050565b613eee83613eb9565b613f02613efa82613edb565b848454613e5d565b825550505050565b600090565b613f17613f0a565b613f22818484613ee5565b505050565b5b81811015613f4657613f3b600082613f0f565b600181019050613f28565b5050565b601f821115613f8b57613f5c81613e2b565b613f6584613e40565b81016020851015613f74578190505b613f88613f8085613e40565b830182613f27565b50505b505050565b600082821c905092915050565b6000613fae60001984600802613f90565b1980831691505092915050565b6000613fc78383613f9d565b9150826002028217905092915050565b613fe18383613d91565b67ffffffffffffffff811115613ffa57613ff9613d9c565b5b6140048254613dfa565b61400f828285613f4a565b6000601f83116001811461403e576000841561402c578287013590505b6140368582613fbb565b86555061409e565b601f19841661404c86613e2b565b60005b828110156140745784890135825560018201915060208501945060208101905061404f565b86831015614091578489013561408d601f891682613f9d565b8355505b6001600288020188555050505b50505050505050565b82818337600083830152505050565b60006140c28385613847565b93506140cf8385846140a7565b6140d883613882565b840190509392505050565b600060208201905081810360008301526140fe8184866140b6565b90509392505050565b7f4d7573742062652061206d656d62657220666972737400000000000000000000600082015250565b600061413d601683613847565b915061414882614107565b602082019050919050565b6000602082019050818103600083015261416c81614130565b9050919050565b7f416c72656164792061206d6f64657261746f7200000000000000000000000000600082015250565b60006141a9601383613847565b91506141b482614173565b602082019050919050565b600060208201905081810360008301526141d88161419c565b9050919050565b7f416c72656164792061206d656d62657200000000000000000000000000000000600082015250565b6000614215601083613847565b9150614220826141df565b602082019050919050565b6000602082019050818103600083015261424481614208565b9050919050565b7f596f7520616c7265616479206f776e20616e206f726700000000000000000000600082015250565b6000614281601683613847565b915061428c8261424b565b602082019050919050565b600060208201905081810360008301526142b081614274565b9050919050565b6142c08261383c565b67ffffffffffffffff8111156142d9576142d8613d9c565b5b6142e38254613dfa565b6142ee828285613f4a565b600060209050601f831160018114614321576000841561430f578287015190505b6143198582613fbb565b865550614381565b601f19841661432f86613e2b565b60005b8281101561435757848901518255600182019150602085019450602081019050614332565b868310156143745784890151614370601f891682613f9d565b8355505b6001600288020188555050505b505050505050565b7f4e487b7100000000000000000000000000000000000000000000000000000000600052601160045260246000fd5b60006143c382613622565b91507fffffffffffffffffffffffffffffffffffffffffffffffffffffffffffffffff82036143f5576143f4614389565b5b600182019050919050565b600060408201905061441560008301866138cc565b81810360208301526144288184866140b6565b9050949350505050565b7f53656e646572206e6f742061206d656d62657200000000000000000000000000600082015250565b6000614468601383613847565b915061447382614432565b602082019050919050565b600060208201905081810360008301526144978161445b565b9050919050565b7f5265636569766572206e6f742061206d656d6265720000000000000000000000600082015250565b60006144d4601583613847565b91506144df8261449e565b602082019050919050565b60006020820190508181036000830152614503816144c7565b9050919050565b600061451582613622565b915061452083613622565b925082820390508181111561453857614537614389565b5b92915050565b7f4f7267206e6f7420666f756e6400000000000000000000000000000000000000600082015250565b6000614574600d83613847565b915061457f8261453e565b602082019050919050565b600060208201905081810360008301526145a381614567565b9050919050565b7f4e6f742061206d656d6265720000000000000000000000000000000000000000600082015250565b60006145e0600c83613847565b91506145eb826145aa565b602082019050919050565b6000602082019050818103600083015261460f816145d3565b9050919050565b7f4e487b7100000000000000000000000000000000000000000000000000000000600052603260045260246000fd5b7f4e487b7100000000000000000000000000000000000000000000000000000000600052603160045260246000fdfea26469706673582212202121497746b01989b50cb59d776eb453c64006b9950abaf1b9f0293e34e7d29364736f6c63430008180033",
  "linkReferences": {},
  "deployedLinkReferences": {}
}